{
  "_format": "hh-sol-artifact-1",
  "contractName": "CrowdSale",
  "sourceName": "contracts/CrowdSale.sol",
  "abi": [
    {
      "inputs": [
        {
          "internalType": "address",
          "name": "_token",
          "type": "address"
        },
        {
          "internalType": "uint256",
          "name": "_price",
          "type": "uint256"
        },
        {
          "internalType": "uint256",
          "name": "_goal",
          "type": "uint256"
        }
      ],
      "stateMutability": "nonpayable",
      "type": "constructor"
    },
    {
      "anonymous": false,
      "inputs": [
        {
          "indexed": true,
          "internalType": "address",
          "name": "_investor",
          "type": "address"
        },
        {
          "indexed": false,
          "internalType": "uint256",
          "name": "_amount",
          "type": "uint256"
        }
      ],
      "name": "Invest",
      "type": "event"
    },
    {
      "inputs": [],
      "name": "checkGoal",
      "outputs": [],
      "stateMutability": "payable",
      "type": "function"
    },
    {
      "inputs": [],
      "name": "getFailEther",
      "outputs": [],
      "stateMutability": "payable",
      "type": "function"
    },
    {
      "inputs": [],
      "name": "getFund",
      "outputs": [
        {
          "internalType": "uint256",
          "name": "",
          "type": "uint256"
        }
      ],
      "stateMutability": "view",
      "type": "function"
    },
    {
      "inputs": [],
      "name": "getGoal",
      "outputs": [
        {
          "internalType": "uint256",
          "name": "",
          "type": "uint256"
        }
      ],
      "stateMutability": "view",
      "type": "function"
    },
    {
      "inputs": [],
      "name": "getOwner",
      "outputs": [
        {
          "internalType": "address",
          "name": "",
          "type": "address"
        }
      ],
      "stateMutability": "view",
      "type": "function"
    },
    {
      "inputs": [],
      "name": "getPrice",
      "outputs": [
        {
          "internalType": "uint256",
          "name": "",
          "type": "uint256"
        }
      ],
      "stateMutability": "view",
      "type": "function"
    },
    {
      "inputs": [],
      "name": "getRemainToken",
      "outputs": [
        {
          "internalType": "uint256",
          "name": "",
          "type": "uint256"
        }
      ],
      "stateMutability": "view",
      "type": "function"
    },
    {
      "inputs": [],
      "name": "getTokenAddress",
      "outputs": [
        {
          "internalType": "address",
          "name": "",
          "type": "address"
        }
      ],
      "stateMutability": "view",
      "type": "function"
    },
    {
      "stateMutability": "payable",
      "type": "receive"
    }
  ],
  "bytecode": "0x60806040523480156200001157600080fd5b5060405162000fb838038062000fb88339818101604052810190620000379190620002a2565b336000806101000a81548173ffffffffffffffffffffffffffffffffffffffff021916908373ffffffffffffffffffffffffffffffffffffffff160217905550600073ffffffffffffffffffffffffffffffffffffffff168373ffffffffffffffffffffffffffffffffffffffff161415620000ea576040517f08c379a0000000000000000000000000000000000000000000000000000000008152600401620000e1906200034b565b60405180910390fd5b82600160006101000a81548173ffffffffffffffffffffffffffffffffffffffff021916908373ffffffffffffffffffffffffffffffffffffffff1602179055508160028190555033600360006101000a81548173ffffffffffffffffffffffffffffffffffffffff021916908373ffffffffffffffffffffffffffffffffffffffff160217905550806004819055506000600581905550600160009054906101000a900473ffffffffffffffffffffffffffffffffffffffff1673ffffffffffffffffffffffffffffffffffffffff166318160ddd6040518163ffffffff1660e01b815260040160206040518083038186803b158015620001eb57600080fd5b505afa15801562000200573d6000803e3d6000fd5b505050506040513d601f19601f82011682018060405250810190620002269190620002f8565b6007819055506007546008819055506000600960016101000a81548160ff0219169083151502179055506000600960006101000a81548160ff02191690831515021790555050505062000419565b6000815190506200028581620003e5565b92915050565b6000815190506200029c81620003ff565b92915050565b600080600060608486031215620002b857600080fd5b6000620002c88682870162000274565b9350506020620002db868287016200028b565b9250506040620002ee868287016200028b565b9150509250925092565b6000602082840312156200030b57600080fd5b60006200031b848285016200028b565b91505092915050565b600062000333600f836200036d565b91506200034082620003bc565b602082019050919050565b60006020820190508181036000830152620003668162000324565b9050919050565b600082825260208201905092915050565b60006200038b8262000392565b9050919050565b600073ffffffffffffffffffffffffffffffffffffffff82169050919050565b6000819050919050565b7f746f6b656e206164647265737320300000000000000000000000000000000000600082015250565b620003f0816200037e565b8114620003fc57600080fd5b50565b6200040a81620003b2565b81146200041657600080fd5b50565b610b8f80620004296000396000f3fe60806040526004361061007f5760003560e01c8063893d20e81161004e578063893d20e81461030e5780638edd6eb61461033957806398d5fdca14610364578063b97a7d241461038f5761029f565b806310fe9ae8146102a45780634c4870c6146102cf5780634ea430db146102d95780636761eea7146102e35761029f565b3661029f57600960009054906101000a900460ff16156100d4576040517f08c379a00000000000000000000000000000000000000000000000000000000081526004016100cb90610868565b60405180910390fd5b600034905060003390506000600254836100ee919061096a565b9050600854811115610135576040517f08c379a000000000000000000000000000000000000000000000000000000000815260040161012c90610888565b60405180910390fd5b806008600082825461014791906109c4565b9250508190555082600560008282546101609190610914565b9250508190555082600a60008473ffffffffffffffffffffffffffffffffffffffff1673ffffffffffffffffffffffffffffffffffffffff16815260200190815260200160002060008282546101b69190610914565b92505081905550600160009054906101000a900473ffffffffffffffffffffffffffffffffffffffff1673ffffffffffffffffffffffffffffffffffffffff1663f464e7db83836040518363ffffffff1660e01b815260040161021a9291906107ff565b600060405180830381600087803b15801561023457600080fd5b505af1158015610248573d6000803e3d6000fd5b505050508173ffffffffffffffffffffffffffffffffffffffff167fd90d253a9de34d2fdd5a75ae49ea17fcb43af32fc8ea08cc6d2341991dd3872e8460405161029291906108e8565b60405180910390a2505050005b600080fd5b3480156102b057600080fd5b506102b96103ba565b6040516102c691906107e4565b60405180910390f35b6102d76103e4565b005b6102e16104d6565b005b3480156102ef57600080fd5b506102f86106a3565b60405161030591906108e8565b60405180910390f35b34801561031a57600080fd5b506103236106ad565b60405161033091906107e4565b60405180910390f35b34801561034557600080fd5b5061034e6106d6565b60405161035b91906108e8565b60405180910390f35b34801561037057600080fd5b506103796106e0565b60405161038691906108e8565b60405180910390f35b34801561039b57600080fd5b506103a46106ea565b6040516103b191906108e8565b60405180910390f35b6000600160009054906101000a900473ffffffffffffffffffffffffffffffffffffffff16905090565b60008054906101000a900473ffffffffffffffffffffffffffffffffffffffff1673ffffffffffffffffffffffffffffffffffffffff163373ffffffffffffffffffffffffffffffffffffffff1614610472576040517f08c379a0000000000000000000000000000000000000000000000000000000008152600401610469906108c8565b60405180910390fd5b6001600960006101000a81548160ff021916908315150217905550600454600554106104b8576000806104b257600360009054906101000a905050600190505b506104d4565b6001600960016101000a81548160ff0219169083151502179055505b565b600960009054906101000a900460ff16610525576040517f08c379a000000000000000000000000000000000000000000000000000000000815260040161051c906108a8565b60405180910390fd5b600960019054906101000a900460ff16610574576040517f08c379a000000000000000000000000000000000000000000000000000000000815260040161056b90610828565b60405180910390fd5b6000600a60003373ffffffffffffffffffffffffffffffffffffffff1673ffffffffffffffffffffffffffffffffffffffff1681526020019081526020016000205414156105f7576040517f08c379a00000000000000000000000000000000000000000000000000000000081526004016105ee90610848565b60405180910390fd5b6000806106a0573373ffffffffffffffffffffffffffffffffffffffff16600a60003373ffffffffffffffffffffffffffffffffffffffff1673ffffffffffffffffffffffffffffffffffffffff16815260200190815260200160002050506000600a60003373ffffffffffffffffffffffffffffffffffffffff1673ffffffffffffffffffffffffffffffffffffffff16815260200190815260200160002081905550600190505b50565b6000600854905090565b60008060009054906101000a900473ffffffffffffffffffffffffffffffffffffffff16905090565b6000600554905090565b6000600254905090565b6000600454905090565b6106fd816109f8565b82525050565b6000610710600883610903565b915061071b82610a63565b602082019050919050565b6000610733600883610903565b915061073e82610a8c565b602082019050919050565b6000610756600383610903565b915061076182610ab5565b602082019050919050565b6000610779600d83610903565b915061078482610ade565b602082019050919050565b600061079c600783610903565b91506107a782610b07565b602082019050919050565b60006107bf600983610903565b91506107ca82610b30565b602082019050919050565b6107de81610a2a565b82525050565b60006020820190506107f960008301846106f4565b92915050565b600060408201905061081460008301856106f4565b61082160208301846107d5565b9392505050565b6000602082019050818103600083015261084181610703565b9050919050565b6000602082019050818103600083015261086181610726565b9050919050565b6000602082019050818103600083015261088181610749565b9050919050565b600060208201905081810360008301526108a18161076c565b9050919050565b600060208201905081810360008301526108c18161078f565b9050919050565b600060208201905081810360008301526108e1816107b2565b9050919050565b60006020820190506108fd60008301846107d5565b92915050565b600082825260208201905092915050565b600061091f82610a2a565b915061092a83610a2a565b9250827fffffffffffffffffffffffffffffffffffffffffffffffffffffffffffffffff0382111561095f5761095e610a34565b5b828201905092915050565b600061097582610a2a565b915061098083610a2a565b9250817fffffffffffffffffffffffffffffffffffffffffffffffffffffffffffffffff04831182151516156109b9576109b8610a34565b5b828202905092915050565b60006109cf82610a2a565b91506109da83610a2a565b9250828210156109ed576109ec610a34565b5b828203905092915050565b6000610a0382610a0a565b9050919050565b600073ffffffffffffffffffffffffffffffffffffffff82169050919050565b6000819050919050565b7f4e487b7100000000000000000000000000000000000000000000000000000000600052601160045260246000fd5b7f6e6f74206661696c000000000000000000000000000000000000000000000000600082015250565b7f6e6f206574686572000000000000000000000000000000000000000000000000600082015250565b7f656e640000000000000000000000000000000000000000000000000000000000600082015250565b7f6e6f206d6f726520746f6b656e00000000000000000000000000000000000000600082015250565b7f6e6f7420656e6400000000000000000000000000000000000000000000000000600082015250565b7f6e6f74206f776e6572000000000000000000000000000000000000000000000060008201525056fea26469706673582212205c35f7d09ff1f822931ae7ab4a73d84154a124e737e1c60b82dbd72145084a8864736f6c63430008030033",
  "linkReferences": {},
  "deployedLinkReferences": {}
}