{
  "contractName": "CrowdSale",
  "abi": [
    {
      "inputs": [
        {
          "internalType": "address",
          "name": "_token",
          "type": "address"
        },
        {
          "internalType": "uint256",
          "name": "_price",
          "type": "uint256"
        },
        {
          "internalType": "uint256",
          "name": "_goal",
          "type": "uint256"
        }
      ],
      "stateMutability": "nonpayable",
      "type": "constructor"
    },
    {
      "anonymous": false,
      "inputs": [
        {
          "indexed": true,
          "internalType": "address",
          "name": "_investor",
          "type": "address"
        },
        {
          "indexed": false,
          "internalType": "uint256",
          "name": "_amount",
          "type": "uint256"
        }
      ],
      "name": "Invest",
      "type": "event"
    },
    {
      "inputs": [],
      "name": "getOwner",
      "outputs": [
        {
          "internalType": "address",
          "name": "",
          "type": "address"
        }
      ],
      "stateMutability": "view",
      "type": "function"
    },
    {
      "stateMutability": "payable",
      "type": "receive"
    },
    {
      "inputs": [],
      "name": "checkGoal",
      "outputs": [],
      "stateMutability": "nonpayable",
      "type": "function"
    }
  ],
  "bytecode": "0x608060405234801561001057600080fd5b506040516109d03803806109d08339818101604052810190610032919061013c565b336000806101000a81548173ffffffffffffffffffffffffffffffffffffffff021916908373ffffffffffffffffffffffffffffffffffffffff16021790555082600160006101000a81548173ffffffffffffffffffffffffffffffffffffffff021916908373ffffffffffffffffffffffffffffffffffffffff1602179055508160028190555033600360006101000a81548173ffffffffffffffffffffffffffffffffffffffff021916908373ffffffffffffffffffffffffffffffffffffffff1602179055508060048190555060006005819055505050506101f5565b600081519050610121816101c7565b92915050565b600081519050610136816101de565b92915050565b60008060006060848603121561015157600080fd5b600061015f86828701610112565b935050602061017086828701610127565b925050604061018186828701610127565b9150509250925092565b60006101968261019d565b9050919050565b600073ffffffffffffffffffffffffffffffffffffffff82169050919050565b6000819050919050565b6101d08161018b565b81146101db57600080fd5b50565b6101e7816101bd565b81146101f257600080fd5b50565b6107cc806102046000396000f3fe60806040526004361061002d5760003560e01c80634c4870c6146102ef578063893d20e814610306576102ea565b366102ea5760003490506000600254826100479190610665565b9050816005600082825461005b919061060f565b925050819055506000805b600880549050811015610127573373ffffffffffffffffffffffffffffffffffffffff16600882815481106100c4577f4e487b7100000000000000000000000000000000000000000000000000000000600052603260045260246000fd5b9060005260206000200160009054906101000a900473ffffffffffffffffffffffffffffffffffffffff1673ffffffffffffffffffffffffffffffffffffffff1614156101145760019150610127565b808061011f90610707565b915050610066565b5080610191576008339080600181540180825580915050600190039060005260206000200160009091909190916101000a81548173ffffffffffffffffffffffffffffffffffffffff021916908373ffffffffffffffffffffffffffffffffffffffff1602179055505b82600760003373ffffffffffffffffffffffffffffffffffffffff1673ffffffffffffffffffffffffffffffffffffffff16815260200190815260200160002060008282546101e0919061060f565b92505081905550600160009054906101000a900473ffffffffffffffffffffffffffffffffffffffff1673ffffffffffffffffffffffffffffffffffffffff1663a9059cbb33846040518363ffffffff1660e01b81526004016102449291906105cb565b602060405180830381600087803b15801561025e57600080fd5b505af1158015610272573d6000803e3d6000fd5b505050506040513d601f19601f820116820180604052508101906102969190610569565b503373ffffffffffffffffffffffffffffffffffffffff167fd90d253a9de34d2fdd5a75ae49ea17fcb43af32fc8ea08cc6d2341991dd3872e846040516102dd91906105f4565b60405180910390a2505050005b600080fd5b3480156102fb57600080fd5b50610304610331565b005b34801561031257600080fd5b5061031b61052b565b60405161032891906105b0565b60405180910390f35b600654421061052957600454600554106103b557600360009054906101000a900473ffffffffffffffffffffffffffffffffffffffff1673ffffffffffffffffffffffffffffffffffffffff166108fc6005549081150290604051600060405180830381858888f193505050501580156103af573d6000803e3d6000fd5b50610528565b60005b60088054905081101561052657600881815481106103ff577f4e487b7100000000000000000000000000000000000000000000000000000000600052603260045260246000fd5b9060005260206000200160009054906101000a900473ffffffffffffffffffffffffffffffffffffffff1673ffffffffffffffffffffffffffffffffffffffff166108fc6007600060088581548110610481577f4e487b7100000000000000000000000000000000000000000000000000000000600052603260045260246000fd5b9060005260206000200160009054906101000a900473ffffffffffffffffffffffffffffffffffffffff1673ffffffffffffffffffffffffffffffffffffffff1673ffffffffffffffffffffffffffffffffffffffff168152602001908152602001600020549081150290604051600060405180830381858888f19350505050158015610512573d6000803e3d6000fd5b50808061051e90610707565b9150506103b8565b505b5b565b60008060009054906101000a900473ffffffffffffffffffffffffffffffffffffffff16905090565b6000815190506105638161077f565b92915050565b60006020828403121561057b57600080fd5b600061058984828501610554565b91505092915050565b61059b816106bf565b82525050565b6105aa816106fd565b82525050565b60006020820190506105c56000830184610592565b92915050565b60006040820190506105e06000830185610592565b6105ed60208301846105a1565b9392505050565b600060208201905061060960008301846105a1565b92915050565b600061061a826106fd565b9150610625836106fd565b9250827fffffffffffffffffffffffffffffffffffffffffffffffffffffffffffffffff0382111561065a57610659610750565b5b828201905092915050565b6000610670826106fd565b915061067b836106fd565b9250817fffffffffffffffffffffffffffffffffffffffffffffffffffffffffffffffff04831182151516156106b4576106b3610750565b5b828202905092915050565b60006106ca826106dd565b9050919050565b60008115159050919050565b600073ffffffffffffffffffffffffffffffffffffffff82169050919050565b6000819050919050565b6000610712826106fd565b91507fffffffffffffffffffffffffffffffffffffffffffffffffffffffffffffffff82141561074557610744610750565b5b600182019050919050565b7f4e487b7100000000000000000000000000000000000000000000000000000000600052601160045260246000fd5b610788816106d1565b811461079357600080fd5b5056fea2646970667358221220b8fb61db9cecb9067b1152399878f3e5c78cad83aaf7e7064ef632fa682a991064736f6c63430008030033",
  "immutableReferences": {},
  "source": "// SPDX-License-Identifier: MIT\npragma solidity ^0.8.0;\n\nimport \"./MyToken.sol\";\nimport \"./Owner.sol\";\n\ncontract CrowdSale is Owner{\n    // \n    address private token;\n    //1wei  \n    uint256 private price;\n    address private owner;\n    uint256 private goal;\n    uint256 private fund;\n    uint256 private deadline;\n    mapping (address => uint256) private fund_investor;\n    address[] private investors;\n\n    event Invest(address indexed _investor, uint256 _amount);\n\n    constructor(address _token, uint256 _price, uint256 _goal){\n        token = _token;\n        price = _price;\n        owner = msg.sender;\n        goal = _goal;\n        fund = 0;\n    }\n    receive() external payable {\n        uint256 amount = msg.value;\n        uint256 tokenAmount = amount * price;\n        fund += amount;\n        bool bexist = false;\n        for(uint i=0;i<investors.length;i++)\n        {\n            if(investors[i]==msg.sender)\n            {\n                bexist = true;\n                break;\n            }\n        }\n        if(!bexist)\n        {\n            investors.push(msg.sender);\n        }\n        fund_investor[msg.sender]+=amount;\n        MyToken(token).transfer(msg.sender, tokenAmount);\n        emit Invest(msg.sender, amount);\n    }\n\n    modifier timeEnd()\n    {\n        if(block.timestamp>=deadline)\n        _;\n    }\n    function checkGoal() public timeEnd{\n        if(fund >= goal)\n        {\n            payable(owner).transfer(fund);\n        }\n        else\n        {\n            for(uint i=0;i<investors.length;i++)\n            {\n                payable(investors[i]).transfer(fund_investor[investors[i]]);\n            }\n        }\n    }\n}",
  "sourcePath": "/Users/gipark/BlockChain/Blockchain/truffle/contracts/CrowdSale.sol",
  "compiler": {
    "name": "solc",
    "version": "0.8.3+commit.8d00100c.Emscripten.clang"
  },
  "schemaVersion": "3.4.4",
  "updatedAt": "2022-02-20T06:22:13.310Z",
  "devdoc": {
    "kind": "dev",
    "methods": {},
    "version": 1
  },
  "userdoc": {
    "kind": "user",
    "methods": {},
    "version": 1
  }
}