{
  "contractName": "MyToken",
  "abi": [
    {
      "inputs": [
        {
          "internalType": "string",
          "name": "_name",
          "type": "string"
        },
        {
          "internalType": "string",
          "name": "_symbol",
          "type": "string"
        },
        {
          "internalType": "uint8",
          "name": "_decimals",
          "type": "uint8"
        }
      ],
      "stateMutability": "nonpayable",
      "type": "constructor"
    },
    {
      "anonymous": false,
      "inputs": [
        {
          "indexed": true,
          "internalType": "address",
          "name": "_owner",
          "type": "address"
        },
        {
          "indexed": true,
          "internalType": "address",
          "name": "_spender",
          "type": "address"
        },
        {
          "indexed": false,
          "internalType": "uint256",
          "name": "_value",
          "type": "uint256"
        }
      ],
      "name": "Approval",
      "type": "event"
    },
    {
      "anonymous": false,
      "inputs": [
        {
          "indexed": true,
          "internalType": "address",
          "name": "_from",
          "type": "address"
        },
        {
          "indexed": true,
          "internalType": "address",
          "name": "_to",
          "type": "address"
        },
        {
          "indexed": false,
          "internalType": "uint256",
          "name": "_value",
          "type": "uint256"
        }
      ],
      "name": "Transfer",
      "type": "event"
    },
    {
      "inputs": [
        {
          "internalType": "address",
          "name": "_owner",
          "type": "address"
        },
        {
          "internalType": "address",
          "name": "_spender",
          "type": "address"
        }
      ],
      "name": "allowance",
      "outputs": [
        {
          "internalType": "uint256",
          "name": "",
          "type": "uint256"
        }
      ],
      "stateMutability": "view",
      "type": "function"
    },
    {
      "inputs": [
        {
          "internalType": "address",
          "name": "_spender",
          "type": "address"
        },
        {
          "internalType": "uint256",
          "name": "_amount",
          "type": "uint256"
        }
      ],
      "name": "approve",
      "outputs": [
        {
          "internalType": "bool",
          "name": "",
          "type": "bool"
        }
      ],
      "stateMutability": "nonpayable",
      "type": "function"
    },
    {
      "inputs": [
        {
          "internalType": "address",
          "name": "_account",
          "type": "address"
        }
      ],
      "name": "balanceOf",
      "outputs": [
        {
          "internalType": "uint256",
          "name": "",
          "type": "uint256"
        }
      ],
      "stateMutability": "view",
      "type": "function"
    },
    {
      "inputs": [],
      "name": "getOwner",
      "outputs": [
        {
          "internalType": "address",
          "name": "",
          "type": "address"
        }
      ],
      "stateMutability": "view",
      "type": "function"
    },
    {
      "inputs": [],
      "name": "totalSupply",
      "outputs": [
        {
          "internalType": "uint256",
          "name": "",
          "type": "uint256"
        }
      ],
      "stateMutability": "view",
      "type": "function"
    },
    {
      "inputs": [
        {
          "internalType": "address",
          "name": "_to",
          "type": "address"
        },
        {
          "internalType": "uint256",
          "name": "_amount",
          "type": "uint256"
        }
      ],
      "name": "transfer",
      "outputs": [
        {
          "internalType": "bool",
          "name": "",
          "type": "bool"
        }
      ],
      "stateMutability": "nonpayable",
      "type": "function"
    },
    {
      "inputs": [
        {
          "internalType": "address",
          "name": "_from",
          "type": "address"
        },
        {
          "internalType": "address",
          "name": "_to",
          "type": "address"
        },
        {
          "internalType": "uint256",
          "name": "_amount",
          "type": "uint256"
        }
      ],
      "name": "transferFrom",
      "outputs": [
        {
          "internalType": "bool",
          "name": "",
          "type": "bool"
        }
      ],
      "stateMutability": "nonpayable",
      "type": "function"
    },
    {
      "inputs": [],
      "name": "getName",
      "outputs": [
        {
          "internalType": "string",
          "name": "",
          "type": "string"
        }
      ],
      "stateMutability": "view",
      "type": "function"
    },
    {
      "inputs": [
        {
          "internalType": "string",
          "name": "_name",
          "type": "string"
        }
      ],
      "name": "setName",
      "outputs": [],
      "stateMutability": "nonpayable",
      "type": "function"
    },
    {
      "inputs": [],
      "name": "getSymbol",
      "outputs": [
        {
          "internalType": "string",
          "name": "",
          "type": "string"
        }
      ],
      "stateMutability": "view",
      "type": "function"
    },
    {
      "inputs": [
        {
          "internalType": "string",
          "name": "_symbol",
          "type": "string"
        }
      ],
      "name": "setSymbol",
      "outputs": [],
      "stateMutability": "nonpayable",
      "type": "function"
    },
    {
      "inputs": [
        {
          "internalType": "uint256",
          "name": "_amount",
          "type": "uint256"
        }
      ],
      "name": "mintToken",
      "outputs": [],
      "stateMutability": "nonpayable",
      "type": "function"
    }
  ],
  "bytecode": "0x60806040523480156200001157600080fd5b5060405162001bee38038062001bee83398181016040528101906200003791906200036c565b82828282600390805190602001906200005292919062000233565b5081600490805190602001906200006b92919062000233565b5080600560006101000a81548160ff021916908360ff160217905550620000c533600560009054906101000a900460ff16600a620000aa919062000539565b612710620000b9919062000676565b6200011360201b60201c565b5050505033600560016101000a81548173ffffffffffffffffffffffffffffffffffffffff021916908373ffffffffffffffffffffffffffffffffffffffff16021790555050505062000855565b60008073ffffffffffffffffffffffffffffffffffffffff168373ffffffffffffffffffffffffffffffffffffffff1614156200014f57600080fd5b81600160008573ffffffffffffffffffffffffffffffffffffffff1673ffffffffffffffffffffffffffffffffffffffff1681526020019081526020016000206000828254620001a0919062000481565b9250508190555081600080828254620001ba919062000481565b925050819055508273ffffffffffffffffffffffffffffffffffffffff16600073ffffffffffffffffffffffffffffffffffffffff167fddf252ad1be2c89b69c2b068fc378daa952ba7f163c4a11628f55a4df523b3ef8460405162000221919062000405565b60405180910390a36001905092915050565b828054620002419062000724565b90600052602060002090601f016020900481019282620002655760008555620002b1565b82601f106200028057805160ff1916838001178555620002b1565b82800160010185558215620002b1579182015b82811115620002b057825182559160200191906001019062000293565b5b509050620002c09190620002c4565b5090565b5b80821115620002df576000816000905550600101620002c5565b5090565b6000620002fa620002f4846200044b565b62000422565b9050828152602081018484840111156200031357600080fd5b62000320848285620006ee565b509392505050565b600082601f8301126200033a57600080fd5b81516200034c848260208601620002e3565b91505092915050565b60008151905062000366816200083b565b92915050565b6000806000606084860312156200038257600080fd5b600084015167ffffffffffffffff8111156200039d57600080fd5b620003ab8682870162000328565b935050602084015167ffffffffffffffff811115620003c957600080fd5b620003d78682870162000328565b9250506040620003ea8682870162000355565b9150509250925092565b620003ff81620006d7565b82525050565b60006020820190506200041c6000830184620003f4565b92915050565b60006200042e62000441565b90506200043c82826200075a565b919050565b6000604051905090565b600067ffffffffffffffff821115620004695762000468620007ee565b5b62000474826200081d565b9050602081019050919050565b60006200048e82620006d7565b91506200049b83620006d7565b9250827fffffffffffffffffffffffffffffffffffffffffffffffffffffffffffffffff03821115620004d357620004d262000790565b5b828201905092915050565b6000808291508390505b6001851115620005305780860481111562000508576200050762000790565b5b6001851615620005185780820291505b808102905062000528856200082e565b9450620004e8565b94509492505050565b60006200054682620006d7565b91506200055383620006e1565b9250620005827fffffffffffffffffffffffffffffffffffffffffffffffffffffffffffffffff84846200058a565b905092915050565b6000826200059c57600190506200066f565b81620005ac57600090506200066f565b8160018114620005c55760028114620005d05762000606565b60019150506200066f565b60ff841115620005e557620005e462000790565b5b8360020a915084821115620005ff57620005fe62000790565b5b506200066f565b5060208310610133831016604e8410600b8410161715620006405782820a9050838111156200063a576200063962000790565b5b6200066f565b6200064f8484846001620004de565b9250905081840481111562000669576200066862000790565b5b81810290505b9392505050565b60006200068382620006d7565b91506200069083620006d7565b9250817fffffffffffffffffffffffffffffffffffffffffffffffffffffffffffffffff0483118215151615620006cc57620006cb62000790565b5b828202905092915050565b6000819050919050565b600060ff82169050919050565b60005b838110156200070e578082015181840152602081019050620006f1565b838111156200071e576000848401525b50505050565b600060028204905060018216806200073d57607f821691505b60208210811415620007545762000753620007bf565b5b50919050565b62000765826200081d565b810181811067ffffffffffffffff82111715620007875762000786620007ee565b5b80604052505050565b7f4e487b7100000000000000000000000000000000000000000000000000000000600052601160045260246000fd5b7f4e487b7100000000000000000000000000000000000000000000000000000000600052602260045260246000fd5b7f4e487b7100000000000000000000000000000000000000000000000000000000600052604160045260246000fd5b6000601f19601f8301169050919050565b60008160011c9050919050565b6200084681620006e1565b81146200085257600080fd5b50565b61138980620008656000396000f3fe608060405234801561001057600080fd5b50600436106100b45760003560e01c8063893d20e811610071578063893d20e8146101a3578063a9059cbb146101c1578063b84c8246146101f1578063c47f00271461020d578063c634d03214610229578063dd62ed3e14610245576100b4565b8063095ea7b3146100b957806315070401146100e957806317d7de7c1461010757806318160ddd1461012557806323b872dd1461014357806370a0823114610173575b600080fd5b6100d360048036038101906100ce9190610e47565b610275565b6040516100e09190610fb4565b60405180910390f35b6100f16103b2565b6040516100fe9190610fcf565b60405180910390f35b61010f610444565b60405161011c9190610fcf565b60405180910390f35b61012d6104d6565b60405161013a9190611031565b60405180910390f35b61015d60048036038101906101589190610df8565b6104df565b60405161016a9190610fb4565b60405180910390f35b61018d60048036038101906101889190610d93565b6106d0565b60405161019a9190611031565b60405180910390f35b6101ab610719565b6040516101b89190610f99565b60405180910390f35b6101db60048036038101906101d69190610e47565b610743565b6040516101e89190610fb4565b60405180910390f35b61020b60048036038101906102069190610e83565b610758565b005b61022760048036038101906102229190610e83565b6107cc565b005b610243600480360381019061023e9190610ec4565b610840565b005b61025f600480360381019061025a9190610dbc565b6108af565b60405161026c9190611031565b60405180910390f35b60008073ffffffffffffffffffffffffffffffffffffffff168373ffffffffffffffffffffffffffffffffffffffff1614156102b057600080fd5b81600260003373ffffffffffffffffffffffffffffffffffffffff1673ffffffffffffffffffffffffffffffffffffffff16815260200190815260200160002060008573ffffffffffffffffffffffffffffffffffffffff1673ffffffffffffffffffffffffffffffffffffffff168152602001908152602001600020600082825461033c91906110be565b925050819055508273ffffffffffffffffffffffffffffffffffffffff163373ffffffffffffffffffffffffffffffffffffffff167f8c5be1e5ebec7d5bd14f71427d1e84f3dd0314c0f7b2291e5b200ac8c7c3b925846040516103a09190611031565b60405180910390a36001905092915050565b6060600480546103c1906111d2565b80601f01602080910402602001604051908101604052809291908181526020018280546103ed906111d2565b801561043a5780601f1061040f5761010080835404028352916020019161043a565b820191906000526020600020905b81548152906001019060200180831161041d57829003601f168201915b5050505050905090565b606060038054610453906111d2565b80601f016020809104026020016040519081016040528092919081815260200182805461047f906111d2565b80156104cc5780601f106104a1576101008083540402835291602001916104cc565b820191906000526020600020905b8154815290600101906020018083116104af57829003601f168201915b5050505050905090565b60008054905090565b60008073ffffffffffffffffffffffffffffffffffffffff168473ffffffffffffffffffffffffffffffffffffffff16141561051a57600080fd5b600073ffffffffffffffffffffffffffffffffffffffff168373ffffffffffffffffffffffffffffffffffffffff16141561055457600080fd5b81600160008673ffffffffffffffffffffffffffffffffffffffff1673ffffffffffffffffffffffffffffffffffffffff1681526020019081526020016000205410156105a057600080fd5b81600260008673ffffffffffffffffffffffffffffffffffffffff1673ffffffffffffffffffffffffffffffffffffffff16815260200190815260200160002060003373ffffffffffffffffffffffffffffffffffffffff1673ffffffffffffffffffffffffffffffffffffffff16815260200190815260200160002054101561062957600080fd5b81600260008673ffffffffffffffffffffffffffffffffffffffff1673ffffffffffffffffffffffffffffffffffffffff16815260200190815260200160002060003373ffffffffffffffffffffffffffffffffffffffff1673ffffffffffffffffffffffffffffffffffffffff16815260200190815260200160002060008282546106b59190611114565b925050819055506106c7848484610936565b90509392505050565b6000600160008373ffffffffffffffffffffffffffffffffffffffff1673ffffffffffffffffffffffffffffffffffffffff168152602001908152602001600020549050919050565b6000600560019054906101000a900473ffffffffffffffffffffffffffffffffffffffff16905090565b6000610750338484610936565b905092915050565b600560019054906101000a900473ffffffffffffffffffffffffffffffffffffffff1673ffffffffffffffffffffffffffffffffffffffff163373ffffffffffffffffffffffffffffffffffffffff16146107b257600080fd5b80600490805190602001906107c8929190610c5e565b5050565b600560019054906101000a900473ffffffffffffffffffffffffffffffffffffffff1673ffffffffffffffffffffffffffffffffffffffff163373ffffffffffffffffffffffffffffffffffffffff161461082657600080fd5b806003908051906020019061083c929190610c5e565b5050565b600560019054906101000a900473ffffffffffffffffffffffffffffffffffffffff1673ffffffffffffffffffffffffffffffffffffffff163373ffffffffffffffffffffffffffffffffffffffff161461089a57600080fd5b6108ab6108a5610719565b82610b45565b5050565b6000600260008473ffffffffffffffffffffffffffffffffffffffff1673ffffffffffffffffffffffffffffffffffffffff16815260200190815260200160002060008373ffffffffffffffffffffffffffffffffffffffff1673ffffffffffffffffffffffffffffffffffffffff16815260200190815260200160002054905092915050565b60008073ffffffffffffffffffffffffffffffffffffffff168373ffffffffffffffffffffffffffffffffffffffff1614156109a7576040517f08c379a000000000000000000000000000000000000000000000000000000000815260040161099e90611011565b60405180910390fd5b81600160008673ffffffffffffffffffffffffffffffffffffffff1673ffffffffffffffffffffffffffffffffffffffff168152602001908152602001600020541015610a29576040517f08c379a0000000000000000000000000000000000000000000000000000000008152600401610a2090610ff1565b60405180910390fd5b81600160008673ffffffffffffffffffffffffffffffffffffffff1673ffffffffffffffffffffffffffffffffffffffff1681526020019081526020016000206000828254610a789190611114565b9250508190555081600160008573ffffffffffffffffffffffffffffffffffffffff1673ffffffffffffffffffffffffffffffffffffffff1681526020019081526020016000206000828254610ace91906110be565b925050819055508273ffffffffffffffffffffffffffffffffffffffff168473ffffffffffffffffffffffffffffffffffffffff167fddf252ad1be2c89b69c2b068fc378daa952ba7f163c4a11628f55a4df523b3ef84604051610b329190611031565b60405180910390a3600190509392505050565b60008073ffffffffffffffffffffffffffffffffffffffff168373ffffffffffffffffffffffffffffffffffffffff161415610b8057600080fd5b81600160008573ffffffffffffffffffffffffffffffffffffffff1673ffffffffffffffffffffffffffffffffffffffff1681526020019081526020016000206000828254610bcf91906110be565b9250508190555081600080828254610be791906110be565b925050819055508273ffffffffffffffffffffffffffffffffffffffff16600073ffffffffffffffffffffffffffffffffffffffff167fddf252ad1be2c89b69c2b068fc378daa952ba7f163c4a11628f55a4df523b3ef84604051610c4c9190611031565b60405180910390a36001905092915050565b828054610c6a906111d2565b90600052602060002090601f016020900481019282610c8c5760008555610cd3565b82601f10610ca557805160ff1916838001178555610cd3565b82800160010185558215610cd3579182015b82811115610cd2578251825591602001919060010190610cb7565b5b509050610ce09190610ce4565b5090565b5b80821115610cfd576000816000905550600101610ce5565b5090565b6000610d14610d0f84611071565b61104c565b905082815260208101848484011115610d2c57600080fd5b610d37848285611190565b509392505050565b600081359050610d4e81611325565b92915050565b600082601f830112610d6557600080fd5b8135610d75848260208601610d01565b91505092915050565b600081359050610d8d8161133c565b92915050565b600060208284031215610da557600080fd5b6000610db384828501610d3f565b91505092915050565b60008060408385031215610dcf57600080fd5b6000610ddd85828601610d3f565b9250506020610dee85828601610d3f565b9150509250929050565b600080600060608486031215610e0d57600080fd5b6000610e1b86828701610d3f565b9350506020610e2c86828701610d3f565b9250506040610e3d86828701610d7e565b9150509250925092565b60008060408385031215610e5a57600080fd5b6000610e6885828601610d3f565b9250506020610e7985828601610d7e565b9150509250929050565b600060208284031215610e9557600080fd5b600082013567ffffffffffffffff811115610eaf57600080fd5b610ebb84828501610d54565b91505092915050565b600060208284031215610ed657600080fd5b6000610ee484828501610d7e565b91505092915050565b610ef681611148565b82525050565b610f058161115a565b82525050565b6000610f16826110a2565b610f2081856110ad565b9350610f3081856020860161119f565b610f39816112c2565b840191505092915050565b6000610f516013836110ad565b9150610f5c826112d3565b602082019050919050565b6000610f746015836110ad565b9150610f7f826112fc565b602082019050919050565b610f9381611186565b82525050565b6000602082019050610fae6000830184610eed565b92915050565b6000602082019050610fc96000830184610efc565b92915050565b60006020820190508181036000830152610fe98184610f0b565b905092915050565b6000602082019050818103600083015261100a81610f44565b9050919050565b6000602082019050818103600083015261102a81610f67565b9050919050565b60006020820190506110466000830184610f8a565b92915050565b6000611056611067565b90506110628282611204565b919050565b6000604051905090565b600067ffffffffffffffff82111561108c5761108b611293565b5b611095826112c2565b9050602081019050919050565b600081519050919050565b600082825260208201905092915050565b60006110c982611186565b91506110d483611186565b9250827fffffffffffffffffffffffffffffffffffffffffffffffffffffffffffffffff0382111561110957611108611235565b5b828201905092915050565b600061111f82611186565b915061112a83611186565b92508282101561113d5761113c611235565b5b828203905092915050565b600061115382611166565b9050919050565b60008115159050919050565b600073ffffffffffffffffffffffffffffffffffffffff82169050919050565b6000819050919050565b82818337600083830152505050565b60005b838110156111bd5780820151818401526020810190506111a2565b838111156111cc576000848401525b50505050565b600060028204905060018216806111ea57607f821691505b602082108114156111fe576111fd611264565b5b50919050565b61120d826112c2565b810181811067ffffffffffffffff8211171561122c5761122b611293565b5b80604052505050565b7f4e487b7100000000000000000000000000000000000000000000000000000000600052601160045260246000fd5b7f4e487b7100000000000000000000000000000000000000000000000000000000600052602260045260246000fd5b7f4e487b7100000000000000000000000000000000000000000000000000000000600052604160045260246000fd5b6000601f19601f8301169050919050565b7f616d6f756e74206f7665722062616c616e636500000000000000000000000000600082015250565b7f5472616e7366657220546f204164647265737320300000000000000000000000600082015250565b61132e81611148565b811461133957600080fd5b50565b61134581611186565b811461135057600080fd5b5056fea2646970667358221220dae90a43f87791aaf06c9538b31c34a2b34087d75e0f7b449360fdcfa594777864736f6c63430008030033",
  "immutableReferences": {},
  "source": "// SPDX-License-Identifier: MIT\npragma solidity >=0.8.0;\n\nimport \"./ERC20.sol\";\nimport \"./Owner.sol\";\n\ncontract MyToken is ERC20, Owner{\n    constructor(string memory _name, string memory _symbol, uint8 _decimals) ERC20(_name,_symbol,_decimals){}\n    function getName() public view returns (string memory)\n    {\n        return name;\n    }\n    function setName(string memory _name) public b_owner\n    {\n        name = _name;\n    }\n    function getSymbol() public view returns (string memory)\n    {\n        return symbol;\n    }\n    function setSymbol(string memory _symbol) public b_owner\n    {\n        symbol = _symbol;\n    }\n    function mintToken(uint256 _amount) public b_owner\n    {\n        _mint(getOwner(), _amount);\n    }\n}",
  "sourcePath": "/Users/gipark/BlockChain/Blockchain/truffle/contracts/MyToken.sol",
  "compiler": {
    "name": "solc",
    "version": "0.8.3+commit.8d00100c.Emscripten.clang"
  },
  "schemaVersion": "3.4.4",
  "updatedAt": "2022-02-20T06:22:13.321Z",
  "devdoc": {
    "kind": "dev",
    "methods": {},
    "version": 1
  },
  "userdoc": {
    "kind": "user",
    "methods": {},
    "version": 1
  }
}