{
  "_format": "hh-sol-artifact-1",
  "contractName": "MyToken",
  "sourceName": "contracts/MyToken.sol",
  "abi": [
    {
      "inputs": [
        {
          "internalType": "string",
          "name": "_name",
          "type": "string"
        },
        {
          "internalType": "string",
          "name": "_symbol",
          "type": "string"
        },
        {
          "internalType": "uint8",
          "name": "_decimals",
          "type": "uint8"
        }
      ],
      "stateMutability": "nonpayable",
      "type": "constructor"
    },
    {
      "anonymous": false,
      "inputs": [
        {
          "indexed": true,
          "internalType": "address",
          "name": "_owner",
          "type": "address"
        },
        {
          "indexed": true,
          "internalType": "address",
          "name": "_spender",
          "type": "address"
        },
        {
          "indexed": false,
          "internalType": "uint256",
          "name": "_value",
          "type": "uint256"
        }
      ],
      "name": "Approval",
      "type": "event"
    },
    {
      "anonymous": false,
      "inputs": [
        {
          "indexed": true,
          "internalType": "address",
          "name": "_from",
          "type": "address"
        },
        {
          "indexed": true,
          "internalType": "address",
          "name": "_to",
          "type": "address"
        },
        {
          "indexed": false,
          "internalType": "uint256",
          "name": "_value",
          "type": "uint256"
        }
      ],
      "name": "Transfer",
      "type": "event"
    },
    {
      "inputs": [
        {
          "internalType": "address",
          "name": "_owner",
          "type": "address"
        },
        {
          "internalType": "address",
          "name": "_spender",
          "type": "address"
        }
      ],
      "name": "allowance",
      "outputs": [
        {
          "internalType": "uint256",
          "name": "",
          "type": "uint256"
        }
      ],
      "stateMutability": "view",
      "type": "function"
    },
    {
      "inputs": [
        {
          "internalType": "address",
          "name": "_spender",
          "type": "address"
        },
        {
          "internalType": "uint256",
          "name": "_amount",
          "type": "uint256"
        }
      ],
      "name": "approve",
      "outputs": [
        {
          "internalType": "bool",
          "name": "",
          "type": "bool"
        }
      ],
      "stateMutability": "nonpayable",
      "type": "function"
    },
    {
      "inputs": [
        {
          "internalType": "address",
          "name": "_account",
          "type": "address"
        }
      ],
      "name": "balanceOf",
      "outputs": [
        {
          "internalType": "uint256",
          "name": "",
          "type": "uint256"
        }
      ],
      "stateMutability": "view",
      "type": "function"
    },
    {
      "inputs": [],
      "name": "decimals",
      "outputs": [
        {
          "internalType": "uint8",
          "name": "",
          "type": "uint8"
        }
      ],
      "stateMutability": "view",
      "type": "function"
    },
    {
      "inputs": [
        {
          "internalType": "address",
          "name": "_spender",
          "type": "address"
        },
        {
          "internalType": "uint256",
          "name": "_subtractedValue",
          "type": "uint256"
        }
      ],
      "name": "decreaseAllowance",
      "outputs": [
        {
          "internalType": "bool",
          "name": "",
          "type": "bool"
        }
      ],
      "stateMutability": "nonpayable",
      "type": "function"
    },
    {
      "inputs": [],
      "name": "getOwner",
      "outputs": [
        {
          "internalType": "address",
          "name": "",
          "type": "address"
        }
      ],
      "stateMutability": "view",
      "type": "function"
    },
    {
      "inputs": [
        {
          "internalType": "address",
          "name": "_spender",
          "type": "address"
        },
        {
          "internalType": "uint256",
          "name": "_addedValue",
          "type": "uint256"
        }
      ],
      "name": "increaseAllowance",
      "outputs": [
        {
          "internalType": "bool",
          "name": "",
          "type": "bool"
        }
      ],
      "stateMutability": "nonpayable",
      "type": "function"
    },
    {
      "inputs": [
        {
          "internalType": "uint256",
          "name": "_amount",
          "type": "uint256"
        }
      ],
      "name": "mintToken",
      "outputs": [],
      "stateMutability": "nonpayable",
      "type": "function"
    },
    {
      "inputs": [],
      "name": "name",
      "outputs": [
        {
          "internalType": "string",
          "name": "",
          "type": "string"
        }
      ],
      "stateMutability": "view",
      "type": "function"
    },
    {
      "inputs": [
        {
          "internalType": "address",
          "name": "_purchaser",
          "type": "address"
        },
        {
          "internalType": "uint256",
          "name": "_amount",
          "type": "uint256"
        }
      ],
      "name": "sellToken",
      "outputs": [],
      "stateMutability": "nonpayable",
      "type": "function"
    },
    {
      "inputs": [],
      "name": "symbol",
      "outputs": [
        {
          "internalType": "string",
          "name": "",
          "type": "string"
        }
      ],
      "stateMutability": "view",
      "type": "function"
    },
    {
      "inputs": [],
      "name": "totalSupply",
      "outputs": [
        {
          "internalType": "uint256",
          "name": "",
          "type": "uint256"
        }
      ],
      "stateMutability": "view",
      "type": "function"
    },
    {
      "inputs": [
        {
          "internalType": "address",
          "name": "_to",
          "type": "address"
        },
        {
          "internalType": "uint256",
          "name": "_amount",
          "type": "uint256"
        }
      ],
      "name": "transfer",
      "outputs": [
        {
          "internalType": "bool",
          "name": "",
          "type": "bool"
        }
      ],
      "stateMutability": "nonpayable",
      "type": "function"
    },
    {
      "inputs": [
        {
          "internalType": "address",
          "name": "_from",
          "type": "address"
        },
        {
          "internalType": "address",
          "name": "_to",
          "type": "address"
        },
        {
          "internalType": "uint256",
          "name": "_amount",
          "type": "uint256"
        }
      ],
      "name": "transferFrom",
      "outputs": [
        {
          "internalType": "bool",
          "name": "",
          "type": "bool"
        }
      ],
      "stateMutability": "nonpayable",
      "type": "function"
    }
  ],
  "bytecode": "0x60806040523480156200001157600080fd5b50604051620021a0380380620021a083398181016040528101906200003791906200038d565b82828282600390805190602001906200005292919062000254565b5081600490805190602001906200006b92919062000254565b5080600560006101000a81548160ff021916908360ff16021790555050505033600560016101000a81548173ffffffffffffffffffffffffffffffffffffffff021916908373ffffffffffffffffffffffffffffffffffffffff160217905550620000fa3382600a620000df9190620005b4565b612710620000ee9190620006f1565b6200010360201b60201c565b505050620008f9565b600073ffffffffffffffffffffffffffffffffffffffff168273ffffffffffffffffffffffffffffffffffffffff16141562000176576040517f08c379a00000000000000000000000000000000000000000000000000000000081526004016200016d906200044d565b60405180910390fd5b80600160008473ffffffffffffffffffffffffffffffffffffffff1673ffffffffffffffffffffffffffffffffffffffff1681526020019081526020016000206000828254620001c79190620004fc565b9250508190555080600080828254620001e19190620004fc565b925050819055508173ffffffffffffffffffffffffffffffffffffffff16600073ffffffffffffffffffffffffffffffffffffffff167fddf252ad1be2c89b69c2b068fc378daa952ba7f163c4a11628f55a4df523b3ef836040516200024891906200046f565b60405180910390a35050565b82805462000262906200079f565b90600052602060002090601f016020900481019282620002865760008555620002d2565b82601f10620002a157805160ff1916838001178555620002d2565b82800160010185558215620002d2579182015b82811115620002d1578251825591602001919060010190620002b4565b5b509050620002e19190620002e5565b5090565b5b8082111562000300576000816000905550600101620002e6565b5090565b60006200031b6200031584620004b5565b6200048c565b9050828152602081018484840111156200033457600080fd5b6200034184828562000769565b509392505050565b600082601f8301126200035b57600080fd5b81516200036d84826020860162000304565b91505092915050565b6000815190506200038781620008df565b92915050565b600080600060608486031215620003a357600080fd5b600084015167ffffffffffffffff811115620003be57600080fd5b620003cc8682870162000349565b935050602084015167ffffffffffffffff811115620003ea57600080fd5b620003f88682870162000349565b92505060406200040b8682870162000376565b9150509250925092565b600062000424601c83620004eb565b91506200043182620008b6565b602082019050919050565b620004478162000752565b82525050565b60006020820190508181036000830152620004688162000415565b9050919050565b60006020820190506200048660008301846200043c565b92915050565b600062000498620004ab565b9050620004a68282620007d5565b919050565b6000604051905090565b600067ffffffffffffffff821115620004d357620004d262000869565b5b620004de8262000898565b9050602081019050919050565b600082825260208201905092915050565b6000620005098262000752565b9150620005168362000752565b9250827fffffffffffffffffffffffffffffffffffffffffffffffffffffffffffffffff038211156200054e576200054d6200080b565b5b828201905092915050565b6000808291508390505b6001851115620005ab578086048111156200058357620005826200080b565b5b6001851615620005935780820291505b8081029050620005a385620008a9565b945062000563565b94509492505050565b6000620005c18262000752565b9150620005ce836200075c565b9250620005fd7fffffffffffffffffffffffffffffffffffffffffffffffffffffffffffffffff848462000605565b905092915050565b600082620006175760019050620006ea565b81620006275760009050620006ea565b81600181146200064057600281146200064b5762000681565b6001915050620006ea565b60ff84111562000660576200065f6200080b565b5b8360020a9150848211156200067a57620006796200080b565b5b50620006ea565b5060208310610133831016604e8410600b8410161715620006bb5782820a905083811115620006b557620006b46200080b565b5b620006ea565b620006ca848484600162000559565b92509050818404811115620006e457620006e36200080b565b5b81810290505b9392505050565b6000620006fe8262000752565b91506200070b8362000752565b9250817fffffffffffffffffffffffffffffffffffffffffffffffffffffffffffffffff04831182151516156200074757620007466200080b565b5b828202905092915050565b6000819050919050565b600060ff82169050919050565b60005b83811015620007895780820151818401526020810190506200076c565b8381111562000799576000848401525b50505050565b60006002820490506001821680620007b857607f821691505b60208210811415620007cf57620007ce6200083a565b5b50919050565b620007e08262000898565b810181811067ffffffffffffffff8211171562000802576200080162000869565b5b80604052505050565b7f4e487b7100000000000000000000000000000000000000000000000000000000600052601160045260246000fd5b7f4e487b7100000000000000000000000000000000000000000000000000000000600052602260045260246000fd5b7f4e487b7100000000000000000000000000000000000000000000000000000000600052604160045260246000fd5b6000601f19601f8301169050919050565b60008160011c9050919050565b7f696e205f6d696e74203a206163636f756e742061646472657373203000000000600082015250565b620008ea816200075c565b8114620008f657600080fd5b50565b61189780620009096000396000f3fe608060405234801561001057600080fd5b50600436106100ea5760003560e01c8063893d20e81161008c578063a9059cbb11610066578063a9059cbb14610275578063c634d032146102a5578063dd62ed3e146102c1578063f464e7db146102f1576100ea565b8063893d20e81461020957806395d89b4114610227578063a457c2d714610245576100ea565b806323b872dd116100c857806323b872dd1461015b578063313ce5671461018b57806339509351146101a957806370a08231146101d9576100ea565b806306fdde03146100ef578063095ea7b31461010d57806318160ddd1461013d575b600080fd5b6100f761030d565b60405161010491906112c0565b60405180910390f35b61012760048036038101906101229190611052565b61039f565b60405161013491906112a5565b60405180910390f35b6101456103b6565b6040516101529190611422565b60405180910390f35b61017560048036038101906101709190611003565b6103bf565b60405161018291906112a5565b60405180910390f35b610193610467565b6040516101a0919061143d565b60405180910390f35b6101c360048036038101906101be9190611052565b61047e565b6040516101d091906112a5565b60405180910390f35b6101f360048036038101906101ee9190610f9e565b610605565b6040516102009190611422565b60405180910390f35b61021161064e565b60405161021e919061128a565b60405180910390f35b61022f610678565b60405161023c91906112c0565b60405180910390f35b61025f600480360381019061025a9190611052565b61070a565b60405161026c91906112a5565b60405180910390f35b61028f600480360381019061028a9190611052565b610891565b60405161029c91906112a5565b60405180910390f35b6102bf60048036038101906102ba919061108e565b6108a8565b005b6102db60048036038101906102d69190610fc7565b61094c565b6040516102e89190611422565b60405180910390f35b61030b60048036038101906103069190611052565b6109d3565b005b60606003805461031c90611586565b80601f016020809104026020016040519081016040528092919081815260200182805461034890611586565b80156103955780601f1061036a57610100808354040283529160200191610395565b820191906000526020600020905b81548152906001019060200180831161037857829003601f168201915b5050505050905090565b60006103ac3384846109e9565b6001905092915050565b60008054905090565b6000806103cc853361094c565b90507fffffffffffffffffffffffffffffffffffffffffffffffffffffffffffffffff8110156104505782811015610439576040517f08c379a000000000000000000000000000000000000000000000000000000000815260040161043090611382565b60405180910390fd5b61044f8533858461044a91906114ca565b6109e9565b5b61045b858585610bb4565b60019150509392505050565b6000600560009054906101000a900460ff16905090565b60008073ffffffffffffffffffffffffffffffffffffffff168373ffffffffffffffffffffffffffffffffffffffff1614156104ef576040517f08c379a00000000000000000000000000000000000000000000000000000000081526004016104e6906112e2565b60405180910390fd5b81600260003373ffffffffffffffffffffffffffffffffffffffff1673ffffffffffffffffffffffffffffffffffffffff16815260200190815260200160002060008573ffffffffffffffffffffffffffffffffffffffff1673ffffffffffffffffffffffffffffffffffffffff168152602001908152602001600020600082825461057b9190611474565b925050819055508273ffffffffffffffffffffffffffffffffffffffff163373ffffffffffffffffffffffffffffffffffffffff167f8c5be1e5ebec7d5bd14f71427d1e84f3dd0314c0f7b2291e5b200ac8c7c3b925846105dc338861094c565b6105e69190611474565b6040516105f39190611422565b60405180910390a36001905092915050565b6000600160008373ffffffffffffffffffffffffffffffffffffffff1673ffffffffffffffffffffffffffffffffffffffff168152602001908152602001600020549050919050565b6000600560019054906101000a900473ffffffffffffffffffffffffffffffffffffffff16905090565b60606004805461068790611586565b80601f01602080910402602001604051908101604052809291908181526020018280546106b390611586565b80156107005780601f106106d557610100808354040283529160200191610700565b820191906000526020600020905b8154815290600101906020018083116106e357829003601f168201915b5050505050905090565b60008073ffffffffffffffffffffffffffffffffffffffff168373ffffffffffffffffffffffffffffffffffffffff16141561077b576040517f08c379a0000000000000000000000000000000000000000000000000000000008152600401610772906113c2565b60405180910390fd5b81600260003373ffffffffffffffffffffffffffffffffffffffff1673ffffffffffffffffffffffffffffffffffffffff16815260200190815260200160002060008573ffffffffffffffffffffffffffffffffffffffff1673ffffffffffffffffffffffffffffffffffffffff168152602001908152602001600020600082825461080791906114ca565b925050819055508273ffffffffffffffffffffffffffffffffffffffff163373ffffffffffffffffffffffffffffffffffffffff167f8c5be1e5ebec7d5bd14f71427d1e84f3dd0314c0f7b2291e5b200ac8c7c3b92584610868338861094c565b61087291906114ca565b60405161087f9190611422565b60405180910390a36001905092915050565b600061089e338484610bb4565b6001905092915050565b600560019054906101000a900473ffffffffffffffffffffffffffffffffffffffff1673ffffffffffffffffffffffffffffffffffffffff163373ffffffffffffffffffffffffffffffffffffffff1614610938576040517f08c379a000000000000000000000000000000000000000000000000000000000815260040161092f906113a2565b60405180910390fd5b61094961094361064e565b82610e2c565b50565b6000600260008473ffffffffffffffffffffffffffffffffffffffff1673ffffffffffffffffffffffffffffffffffffffff16815260200190815260200160002060008373ffffffffffffffffffffffffffffffffffffffff1673ffffffffffffffffffffffffffffffffffffffff16815260200190815260200160002054905092915050565b6109e56109de61064e565b8383610bb4565b5050565b600073ffffffffffffffffffffffffffffffffffffffff168373ffffffffffffffffffffffffffffffffffffffff161415610a59576040517f08c379a0000000000000000000000000000000000000000000000000000000008152600401610a50906113e2565b60405180910390fd5b600073ffffffffffffffffffffffffffffffffffffffff168273ffffffffffffffffffffffffffffffffffffffff161415610ac9576040517f08c379a0000000000000000000000000000000000000000000000000000000008152600401610ac090611362565b60405180910390fd5b80600260008573ffffffffffffffffffffffffffffffffffffffff1673ffffffffffffffffffffffffffffffffffffffff16815260200190815260200160002060008473ffffffffffffffffffffffffffffffffffffffff1673ffffffffffffffffffffffffffffffffffffffff168152602001908152602001600020819055508173ffffffffffffffffffffffffffffffffffffffff168373ffffffffffffffffffffffffffffffffffffffff167f8c5be1e5ebec7d5bd14f71427d1e84f3dd0314c0f7b2291e5b200ac8c7c3b92583604051610ba79190611422565b60405180910390a3505050565b600073ffffffffffffffffffffffffffffffffffffffff168373ffffffffffffffffffffffffffffffffffffffff161415610c24576040517f08c379a0000000000000000000000000000000000000000000000000000000008152600401610c1b90611302565b60405180910390fd5b600073ffffffffffffffffffffffffffffffffffffffff168273ffffffffffffffffffffffffffffffffffffffff161415610c94576040517f08c379a0000000000000000000000000000000000000000000000000000000008152600401610c8b90611322565b60405180910390fd5b80600160008573ffffffffffffffffffffffffffffffffffffffff1673ffffffffffffffffffffffffffffffffffffffff168152602001908152602001600020541015610d16576040517f08c379a0000000000000000000000000000000000000000000000000000000008152600401610d0d90611402565b60405180910390fd5b80600160008573ffffffffffffffffffffffffffffffffffffffff1673ffffffffffffffffffffffffffffffffffffffff1681526020019081526020016000206000828254610d6591906114ca565b9250508190555080600160008473ffffffffffffffffffffffffffffffffffffffff1673ffffffffffffffffffffffffffffffffffffffff1681526020019081526020016000206000828254610dbb9190611474565b925050819055508173ffffffffffffffffffffffffffffffffffffffff168373ffffffffffffffffffffffffffffffffffffffff167fddf252ad1be2c89b69c2b068fc378daa952ba7f163c4a11628f55a4df523b3ef83604051610e1f9190611422565b60405180910390a3505050565b600073ffffffffffffffffffffffffffffffffffffffff168273ffffffffffffffffffffffffffffffffffffffff161415610e9c576040517f08c379a0000000000000000000000000000000000000000000000000000000008152600401610e9390611342565b60405180910390fd5b80600160008473ffffffffffffffffffffffffffffffffffffffff1673ffffffffffffffffffffffffffffffffffffffff1681526020019081526020016000206000828254610eeb9190611474565b9250508190555080600080828254610f039190611474565b925050819055508173ffffffffffffffffffffffffffffffffffffffff16600073ffffffffffffffffffffffffffffffffffffffff167fddf252ad1be2c89b69c2b068fc378daa952ba7f163c4a11628f55a4df523b3ef83604051610f689190611422565b60405180910390a35050565b600081359050610f8381611833565b92915050565b600081359050610f988161184a565b92915050565b600060208284031215610fb057600080fd5b6000610fbe84828501610f74565b91505092915050565b60008060408385031215610fda57600080fd5b6000610fe885828601610f74565b9250506020610ff985828601610f74565b9150509250929050565b60008060006060848603121561101857600080fd5b600061102686828701610f74565b935050602061103786828701610f74565b925050604061104886828701610f89565b9150509250925092565b6000806040838503121561106557600080fd5b600061107385828601610f74565b925050602061108485828601610f89565b9150509250929050565b6000602082840312156110a057600080fd5b60006110ae84828501610f89565b91505092915050565b6110c0816114fe565b82525050565b6110cf81611510565b82525050565b60006110e082611458565b6110ea8185611463565b93506110fa818560208601611553565b61110381611616565b840191505092915050565b600061111b602883611463565b915061112682611627565b604082019050919050565b600061113e601d83611463565b915061114982611676565b602082019050919050565b6000611161601b83611463565b915061116c8261169f565b602082019050919050565b6000611184601c83611463565b915061118f826116c8565b602082019050919050565b60006111a7601f83611463565b91506111b2826116f1565b602082019050919050565b60006111ca602783611463565b91506111d58261171a565b604082019050919050565b60006111ed600983611463565b91506111f882611769565b602082019050919050565b6000611210602883611463565b915061121b82611792565b604082019050919050565b6000611233601d83611463565b915061123e826117e1565b602082019050919050565b6000611256601683611463565b91506112618261180a565b602082019050919050565b6112758161153c565b82525050565b61128481611546565b82525050565b600060208201905061129f60008301846110b7565b92915050565b60006020820190506112ba60008301846110c6565b92915050565b600060208201905081810360008301526112da81846110d5565b905092915050565b600060208201905081810360008301526112fb8161110e565b9050919050565b6000602082019050818103600083015261131b81611131565b9050919050565b6000602082019050818103600083015261133b81611154565b9050919050565b6000602082019050818103600083015261135b81611177565b9050919050565b6000602082019050818103600083015261137b8161119a565b9050919050565b6000602082019050818103600083015261139b816111bd565b9050919050565b600060208201905081810360008301526113bb816111e0565b9050919050565b600060208201905081810360008301526113db81611203565b9050919050565b600060208201905081810360008301526113fb81611226565b9050919050565b6000602082019050818103600083015261141b81611249565b9050919050565b6000602082019050611437600083018461126c565b92915050565b6000602082019050611452600083018461127b565b92915050565b600081519050919050565b600082825260208201905092915050565b600061147f8261153c565b915061148a8361153c565b9250827fffffffffffffffffffffffffffffffffffffffffffffffffffffffffffffffff038211156114bf576114be6115b8565b5b828201905092915050565b60006114d58261153c565b91506114e08361153c565b9250828210156114f3576114f26115b8565b5b828203905092915050565b60006115098261151c565b9050919050565b60008115159050919050565b600073ffffffffffffffffffffffffffffffffffffffff82169050919050565b6000819050919050565b600060ff82169050919050565b60005b83811015611571578082015181840152602081019050611556565b83811115611580576000848401525b50505050565b6000600282049050600182168061159e57607f821691505b602082108114156115b2576115b16115e7565b5b50919050565b7f4e487b7100000000000000000000000000000000000000000000000000000000600052601160045260246000fd5b7f4e487b7100000000000000000000000000000000000000000000000000000000600052602260045260246000fd5b6000601f19601f8301169050919050565b7f696e20696e637265617365416c6c6f77616e6365203a207370656e646572206160008201527f6464726573732030000000000000000000000000000000000000000000000000602082015250565b7f696e205f7472616e73666572203a2066726f6d20616464726573732030000000600082015250565b7f696e205f7472616e73666572203a20746f204164647265737320300000000000600082015250565b7f696e205f6d696e74203a206163636f756e742061646472657373203000000000600082015250565b7f696e205f617070726f7665203a207370656e6465722061646472657373203000600082015250565b7f696e207472616e7366657246726f6d203a20616d6f756e74206f76657220616c60008201527f6c6f77616e636500000000000000000000000000000000000000000000000000602082015250565b7f6e6f74206f776e65720000000000000000000000000000000000000000000000600082015250565b7f696e206465637265617365416c6c6f77616e6365203a207370656e646572206160008201527f6464726573732030000000000000000000000000000000000000000000000000602082015250565b7f696e205f617070726f7665203a206f776e657220616464726573732030000000600082015250565b7f616d6f756e74206f7665722062616c616e6365207b7d00000000000000000000600082015250565b61183c816114fe565b811461184757600080fd5b50565b6118538161153c565b811461185e57600080fd5b5056fea2646970667358221220abe82a14e1eaa3125a4afe7d0f30f69b93391ccb2a45fb387423735f7629829864736f6c63430008030033",
  "linkReferences": {},
  "deployedLinkReferences": {}
}